:0400000077EF00F0A6
:100008004582E1CF32F0E2CF33F0D9CF34F0DACF06
:1000180035F00E01C8A913EF00F015EF00F038EF26
:1000280000F00550015C065002580750035808506C
:100038000458D8B022EF00F024EF00F034EF00F0BD
:1000480001501124D96E02501220DA6EDF50996ED9
:10005800010E0126000E02220322042238EF00F0CE
:10006800000E186EB4EC10F00E01C5AB3EEF00F0B8
:1000780040EF00F04FEF00F0C551DF0BC56F90EC7B
:1000880010F08CEC0EF0010E1C6E1BC01DF001EC84
:100098000FF0000E1B6E0E01C8AB55EF00F057EFC6
:1000A80000F06DEF00F0630E1B645DEF00F05FEF92
:1000B80000F061EF00F0000E1B6E98CF17F01B5098
:1000C800600FD96EDA6A17C0DFFF1B2A1E2A6DEC93
:1000D8000CF035C0DAFF34C0D9FF33C0E2FF32C0BC
:0A00E800E1FF45921100C3EF0EF096
:100F000000000BA086EF07F088EF07F097EF07F0DF
:100F1000140E3B6E010E5EEC0DF0500E366EC30EDD
:100F2000376E000E386E000E396E3EEC0DF00BA2DF
:100F30009CEF07F09EEF07F0AAEF07F014EC0EF01D
:100F4000500E366EC30E376E000E386E000E396EC0
:100F50003EEC0DF00BA4AFEF07F0B1EF07F0BDEFE3
:100F600007F032EC0EF0500E366EC30E376E000EE8
:100F7000386E000E396E3EEC0DF00BA6C2EF07F096
:100F8000C4EF07F0D0EF07F09CEC0DF0500E366E7A
:100F9000C30E376E000E386E000E396E3EEC0DF04B
:100FA0000BA8D5EF07F0D7EF07F0E3EF07F0BAECA7
:100FB0000DF0500E366EC30E376E000E386E000EFA
:100FC000396E3EEC0DF00BAAE8EF07F0EAEF07F000
:100FD000F6EF07F050EC0EF0500E366EC30E376E83
:100FE000000E386E000E396E3EEC0DF00BACFBEFD0
:100FF00007F0FDEF07F009EF08F06EEC0EF0500E71
:10100000366EC30E376E000E386E000E396E3EEC33
:101010000DF00BAE0EEF08F010EF08F036EF08F011
:101020001650D8A416EF08F018EF08F023EF08F0D8
:10103000E20E3B6E000ED9EC0CF0010E166EFDECCC
:1010400010F02CEF08F0E10E3B6E010ED9EC0CF025
:10105000000E166E05EC11F0500E366EC30E376E94
:10106000000E386E000E396E3EEC0DF00CA03BEF1A
:1010700008F03DEF08F05FEF08F01550D8A443EFFB
:1010800008F045EF08F04EEF08F0010E7DEC0DF092
:10109000010E156EF9EC10F055EF08F0000E7DEC26
:1010A0000DF0000E156E01EC11F0500E366EC30EF1
:1010B000376E000E386E000E396E3EEC0DF00CAC43
:1010C00064EF08F066EF08F072EF08F0D8EC0DF06E
:1010D000500E366EC30E376E000E386E000E396E2F
:1010E0003EEC0DF00CAE77EF08F079EF08F085EFED
:1010F00008F0F6EC0DF0500E366EC30E376E000E93
:10110000386E000E396E3EEC0DF012003D6E3D5013
:1011100015EC0CF03A6E395041EC0CF03B6E3A5045
:10112000D8A495EF08F097EF08F066EF09F03B5070
:10113000D8A49DEF08F09FEF08F066EF09F039C0E2
:1011400036F03D5048EC0AF03C6E1FEF09F0000EFF
:101150000F100F6E800E1010106E66EF09F0000E6B
:101160000F100F6E400E1010106E66EF09F0000E9B
:101170000F100F6E200E1010106E66EF09F0000EAB
:101180000F100F6E100E1010106E66EF09F0000EAB
:101190000F100F6E080E1010106E66EF09F0000EA3
:1011A0000F100F6E040E1010106E66EF09F0000E97
:1011B0000F100F6E020E1010106E66EF09F0000E89
:1011C0000F100F6E010E1010106E66EF09F0800EFA
:1011D0000F100F6E1050106E66EF09F0400E0F10DA
:1011E0000F6E1050106E66EF09F0200E0F100F6E8C
:1011F0001050106E66EF09F0100E0F100F6E1050A9
:10120000106E66EF09F0080E0F100F6E1050106E82
:1012100066EF09F0040E0F100F6E1050106E66EF9F
:1012200009F0020E0F100F6E1050106E66EF09F0ED
:10123000010E0F100F6E1050106E66EF09F03C504B
:10124000000AD8B418EF09F0010AD8B411EF09F078
:10125000030AD8B40AEF09F0010AD8B403EF09F081
:10126000070AD8B4FCEF08F0010AD8B4F5EF08F08B
:10127000030AD8B4EEEF08F0010AD8B4E7EF08F09B
:101280000F0AD8B4DFEF08F0010AD8B4D7EF08F09E
:10129000030AD8B4CFEF08F0010AD8B4C7EF08F0BA
:1012A000070AD8B4BFEF08F0010AD8B4B7EF08F0C6
:1012B000030AD8B4AFEF08F0010AD8B4A7EF08F0DA
:1012C000F00AD8B466EF09F066EF09F012003D6E3F
:1012D000395041EC0CF03B6E3D5015EC0CF03A6E81
:1012E0003A50D8A476EF09F078EF09F047EF0AF00A
:1012F0003B50D8A47EEF09F080EF09F047EF0AF0E9
:1013000039C036F03D50F0EC0AF03C6E00EF0AF0C8
:10131000000E0D100D6E800E0E100E6E47EF0AF0CF
:10132000000E0D100D6E400E0E100E6E47EF0AF0FF
:10133000000E0D100D6E200E0E100E6E47EF0AF00F
:10134000000E0D100D6E100E0E100E6E47EF0AF00F
:10135000000E0D100D6E080E0E100E6E47EF0AF007
:10136000000E0D100D6E040E0E100E6E47EF0AF0FB
:10137000000E0D100D6E020E0E100E6E47EF0AF0ED
:10138000000E0D100D6E010E0E100E6E47EF0AF0DE
:10139000800E0D100D6E0E500E6E47EF0AF0400ECF
:1013A0000D100D6E0E500E6E47EF0AF0200E0D1050
:1013B0000D6E0E500E6E47EF0AF0100E0D100D6EF2
:1013C0000E500E6E47EF0AF0080E0D100D6E0E5007
:1013D0000E6E47EF0AF0040E0D100D6E0E500E6EDD
:1013E00047EF0AF0020E0D100D6E0E500E6E47EF15
:1013F0000AF0010E0D100D6E0E500E6E47EF0AF042
:101400003C50000AD8B4F9EF09F0010AD8B4F2EF61
:1014100009F0030AD8B4EBEF09F0010AD8B4E4EFFD
:1014200009F0070AD8B4DDEF09F0010AD8B4D6EF05
:1014300009F0030AD8B4CFEF09F0010AD8B4C8EF15
:1014400009F00F0AD8B4C0EF09F0010AD8B4B8EF18
:1014500009F0030AD8B4B0EF09F0010AD8B4A8EF34
:1014600009F0070AD8B4A0EF09F0010AD8B498EF40
:1014700009F0030AD8B490EF09F0010AD8B488EF54
:1014800009F0F00AD8B447EF0AF047EF0AF012006B
:10149000376E3868DBEF0AF00F0E386EEEEF0AF0A9
:1014A0000E0E386EEEEF0AF00D0E386EEEEF0AF00B
:1014B0000C0E386EEEEF0AF03868EEEF0AF0365098
:1014C000000AD8B44CEF0AF0010AD8B450EF0AF081
:1014D000030AD8B454EF0AF0010AD8B458EF0AF05E
:1014E0005CEF0AF00B0E386EEEEF0AF00A0E386E63
:1014F000EEEF0AF0090E386EEEEF0AF0080E386EC5
:10150000EEEF0AF03650000AD8B472EF0AF0010A82
:10151000D8B476EF0AF0030AD8B47AEF0AF0010AD9
:10152000D8B47EEF0AF05CEF0AF0070E386EEEEFEB
:101530000AF0060E386EEEEF0AF0050E386EEEEF8A
:101540000AF0040E386EEEEF0AF03650000AD8B4F6
:1015500095EF0AF0010AD8B499EF0AF0030AD8B45B
:101560009DEF0AF0010AD8B4A1EF0AF05CEF0AF08F
:10157000030E386EEEEF0AF0020E386EEEEF0AF050
:10158000010E386EEEEF0AF0000E386EEEEF0AF044
:101590003650000AD8B4B8EF0AF0010AD8B4BCEF4C
:1015A0000AF0030AD8B4C0EF0AF0010AD8B4C4EFB5
:1015B0000AF05CEF0AF03750000AD8B45FEF0AF087
:1015C000010AD8B482EF0AF0030AD8B4A5EF0AF0F2
:1015D000010AD8B4C8EF0AF0EEEF0AF03850120052
:1015E000376E82EF0BF00F0E386E95EF0BF00B0E8F
:1015F000386E95EF0BF0070E386E95EF0BF0030E7B
:10160000386E95EF0BF0386895EF0BF03750000A05
:10161000D8B4F3EF0AF0010AD8B4F7EF0AF0030ADE
:10162000D8B4FBEF0AF0010AD8B4FFEF0AF003EFD9
:101630000BF00E0E386E95EF0BF00A0E386E95EF2C
:101640000BF0060E386E95EF0BF0020E386E95EF2C
:101650000BF03750000AD8B419EF0BF0010AD8B4D8
:101660001DEF0BF0030AD8B421EF0BF0010AD8B438
:1016700025EF0BF003EF0BF00D0E386E95EF0BF02E
:10168000090E386E95EF0BF0050E386E95EF0BF0E6
:10169000010E386E95EF0BF03750000AD8B43CEFCE
:1016A0000BF0010AD8B440EF0BF0030AD8B444EFB2
:1016B0000BF0010AD8B448EF0BF003EF0BF00C0E5F
:1016C000386E95EF0BF0080E386E95EF0BF0040EA8
:1016D000386E95EF0BF0000E386E95EF0BF037502B
:1016E000000AD8B45FEF0BF0010AD8B463EF0BF037
:1016F000030AD8B467EF0BF0010AD8B46BEF0BF014
:1017000003EF0BF03650000AD8B406EF0BF0010AD5
:10171000D8B429EF0BF0030AD8B44CEF0BF0010A50
:10172000D8B46FEF0BF095EF0BF038501200366E17
:10173000C2EF0BF0D5EC10F0C9EC10F0C1EC10F0DA
:10174000B9EC10F0D5EF0BF0D1EC10F0CDEC10F0BF
:10175000C1EC10F0B9EC10F0D5EF0BF0D1EC10F0BB
:10176000C9EC10F0C5EC10F0B9EC10F0D5EF0BF0AF
:10177000D1EC10F0C9EC10F0C1EC10F0BDEC10F0A1
:10178000D5EF0BF03650000AD8B49AEF0BF0010AEF
:10179000D8B4A4EF0BF0030AD8B4AEEF0BF0010AF3
:1017A000D8B4B8EF0BF0D5EF0BF01200366E01EFA6
:1017B0000CF0F5EC10F0E9EC10F0E1EC10F0D9ECE5
:1017C00010F014EF0CF0F1EC10F0EDEC10F0E1EC97
:1017D00010F0D9EC10F014EF0CF0F1EC10F0E9EC93
:1017E00010F0E5EC10F0D9EC10F014EF0CF0F1EC87
:1017F00010F0E9EC10F0E1EC10F0DDEC10F014EF7B
:101800000CF03650000AD8B4D9EF0BF0010AD8B466
:10181000E3EF0BF0030AD8B4EDEF0BF0010AD8B4F4
:10182000F7EF0BF014EF0CF01200376E2CEF0CF00A
:1018300085EC0FF0386E3FEF0CF076EC0FF0386E61
:101840003FEF0CF067EC0FF0386E3FEF0CF058EC08
:101850000FF0386E3FEF0CF03750000AD8B418EF95
:101860000CF0010AD8B41DEF0CF0030AD8B422EF33
:101870000CF0010AD8B427EF0CF03FEF0CF0385011
:101880001200376E58EF0CF0C1EC0FF0386E6BEFB2
:101890000CF0B2EC0FF0386E6BEF0CF0A3EC0FF025
:1018A000386E6BEF0CF094EC0FF0386E6BEF0CF0C1
:1018B0003750000AD8B444EF0CF0010AD8B449EF0D
:1018C0000CF0030AD8B44EEF0CF0010AD8B453EF71
:1018D0000CF06BEF0CF038501200010E0A6E2C0E5B
:1018E000096E09C014F00A50136ED4507F0BD46EE9
:1018F000D550EF0BD56ED5504009D56ED5504F0B56
:10190000D56ED4509009D46ED4509F0BD46E13C0B2
:10191000D3FF14C0D2FFD4508009D46E0E01BD5144
:101920002009BD6F1200E4EC0FF0EDEC0FF0000E9B
:101930003F6E3F5097EC0BF0000E3E6E3EC039F00C
:101940003F5086EC08F03E2A030E3E64AAEF0CF0EE
:10195000ACEF0CF09EEF0CF03F2A030E3F64B3EFA8
:101960000CF0B5EF0CF099EF0CF01200FFEC0FF05B
:10197000F6EC0FF0000E3F6E3F50D6EC0BF0000E71
:101980003E6E3FC039F03E5067EC09F03E2A030E30
:101990003E64CDEF0CF0CFEF0CF0C1EF0CF03F2A1E
:1019A000030E3F64D6EF0CF0D8EF0CF0BCEF0CF058
:1019B00012003C6E26EC0FF07E0E1F6E2068060EA5
:1019C000216E190E226E010E236E000E246E3CC095
:1019D00025F0FE0E266E3BC027F0EF0E286E1F0E80
:1019E000366E0A0E376E000E386E000E396E000E1F
:1019F0003A6EFCEC0CF012001850D8A402EF0DF077
:101A000004EF0DF01DEF0DF0000E016E000E026EE2
:101A1000000E036E000E046E36C011F0126A37C05D
:101A200005F038C006F039C007F03AC008F009ECFC
:101A300011F0010E186EAAEC10F0120014EC0FF069
:101A4000D0EC0FF0DBEC0FF09FEC10F048EC0FF057
:101A5000DAEC0EF008EC10F0400E366E420E376EE7
:101A60000F0E386E000E396E3EEC0DF0EEEC0EF0FF
:101A700081EC07F036EF0DF077EF00F0000E3A6ED4
:101A8000000E3B6E000E3C6E000E3D6E4EEF0DF0F4
:101A9000010E3A26000E3B223C223D2236503A5C93
:101AA00037503B5838503C5839503D58D8A05BEF20
:101AB0000DF05DEF0DF048EF0DF012003C6E37ECCD
:101AC0000FF07E0E296E2A68060E2B6E0F0E2C6EFE
:101AD000010E2D6E3CC02EF03BC02FF0EF0E306E8D
:101AE000290E366E080E376E000E386E000E396EF7
:101AF000000E3A6EFCEC0CF012003B6E37EC0FF06F
:101B00007E0E296E2A68060E2B6E110E2C6E010EAB
:101B10002D6E000E2E6E3BC02FF0EF0E306E290E94
:101B2000366E080E376E000E386E000E396E000EDF
:101B30003A6EFCEC0CF0120037EC0FF07E0E296EC2
:101B40002A68060E2B6E040E2C6E010E2D6E000EF2
:101B50002E6E000E2F6EEF0E306E290E366E080EB2
:101B6000376E000E386E000E396E000E3A6EFCECC9
:101B70000CF0120037EC0FF07E0E296E2A68060E6C
:101B80002B6E050E2C6E010E2D6E000E2E6E000EAD
:101B90002F6EEF0E306E290E366E080E376E000E69
:101BA000386E000E396E000E3A6EFCEC0CF012002E
:101BB00037EC0FF07E0E296E2A68060E2B6E0A0E89
:101BC0002C6E010E2D6E000E2E6E000E2F6EEF0E7F
:101BD000306E290E366E080E376E000E386E000E0F
:101BE000396E000E3A6EFCEC0CF0120037EC0FF080
:101BF0007E0E296E2A68060E2B6E0C0E2C6E010EC0
:101C00002D6E000E2E6E000E2F6EEF0E306E290E12
:101C1000366E080E376E000E386E000E396E000EEE
:101C20003A6EFCEC0CF0120037EC0FF07E0E296ED1
:101C30002A68060E2B6E020E2C6E010E2D6E000E03
:101C40002E6E000E2F6EEF0E306E290E366E080EC1
:101C5000376E000E386E000E396E000E3A6EFCECD8
:101C60000CF0120037EC0FF07E0E296E2A68060E7B
:101C70002B6E010E2C6E010E2D6E000E2E6E000EC0
:101C80002F6EEF0E306E290E366E080E376E000E78
:101C9000386E000E396E000E3A6EFCEC0CF012003D
:101CA00037EC0FF07E0E296E2A68060E2B6E0D0E95
:101CB0002C6E010E2D6E000E2E6E000E2F6EEF0E8E
:101CC000306E290E366E080E376E000E386E000E1E
:101CD000396E000E3A6EFCEC0CF0120037EC0FF08F
:101CE0007E0E296E2A68060E2B6E0E0E2C6E010ECD
:101CF0002D6E000E2E6E000E2F6EEF0E306E290E22
:101D0000366E080E376E000E386E000E396E000EFD
:101D10003A6EFCEC0CF01200000E316E000E316ECB
:101D20009FEF0EF03150600FD96EDA6A000E312449
:101D3000E16EE26A010EE222DFCFE7FF312A1B509B
:101D4000315CD8A0A6EF0EF0A8EF0EF092EF0EF0E7
:101D500012008F50010B8F6E8E50F70B8E6E0F019D
:101D60002051010B206F1B51F70B1B6F000E106EE3
:101D7000000E0F6E000E0E6E000E0D6E000E0C6E3D
:101D8000000E0B6E120001EE00F0640EEE6AE80623
:101D9000FDE100EE60F0640EEE6AE806FDE100EEA3
:101DA00001F0300EEE6AE806FDE145904592000133
:101DB0001EEF0DF0090E0E01F86F0F011C51BF0B45
:101DC0001C6F8950BF0B896E9D50EF0B9D6E9D500F
:101DD000BF0B9D6E9D5004099D6E1200A9EC0EF084
:101DE00093EC0CF0A00E366E860E376E010E386E38
:101DF000000E396E3EEC0DF0B6EC0CF098EC10F0E5
:101E00001200000E316E000E316E3150600FD96E2F
:101E1000DA6ADF6A312A630E316411EF0FF013EFD3
:101E20000FF005EF0FF01200000E0E01C56F000E4F
:101E3000C66F000EC76F000EC86F000EC96F000E90
:101E4000CA6F000ECB6F000ECC6F1200000E366E04
:101E500036501F0FD96EDA6ADF6A362A090E3664E9
:101E600034EF0FF036EF0FF028EF0FF01200000EF6
:101E7000366E3650290FD96EDA6ADF6A362A070EB7
:101E8000366445EF0FF047EF0FF039EF0FF0120017
:101E9000170E0E01B06F0F011C517F0B1C6F9C5071
:101EA00080099C6E9C50BF0B9C6E0DEC11F01200D3
:101EB0008FA25DEF0FF05FEF0FF063EF0FF0010EF9
:101EC000366E65EF0FF0000E366E365012008EA69D
:101ED0006CEF0FF06EEF0FF072EF0FF0010E366E39
:101EE00074EF0FF0000E366E365012008FA47BEFA9
:101EF0000FF07DEF0FF081EF0FF0010E366E83EFE4
:101F00000FF0000E366E365012008FA68AEF0FF0DB
:101F10008CEF0FF090EF0FF0010E366E92EF0FF096
:101F2000000E366E365012008FAE99EF0FF09BEF19
:101F30000FF09FEF0FF0010E366EA1EF0FF0000EC5
:101F4000366E365012008FACA8EF0FF0AAEF0FF0EC
:101F5000AEEF0FF0010E366EB0EF0FF0000E366EE2
:101F6000365012008FAAB7EF0FF0B9EF0FF0BDEFA8
:101F70000FF0010E366EBFEF0FF0000E366E3650CA
:101F800012008FA8C6EF0FF0C8EF0FF0CCEF0FF0E4
:101F9000010E366ECEEF0FF0000E366E3650120088
:101FA00087500F0B876E0F010C510F0B0C6F8C506D
:101FB0000F0B8C6E1200F250C009F26EF250DF0B64
:101FC000F26EA5EC10F0120028EC10F020EC10F0EE
:101FD00018EC10F010EC10F0120048EC10F040EC8F
:101FE00010F038EC10F030EC10F0120068EC10F04B
:101FF00060EC10F058EC10F050EC10F0120088EC8F
:1020000010F080EC10F078EC10F070EC10F0120092
:102010000F011C51FB0B1C6F2151020B216F120091
:102020000F012051FD0B206F8A50FD0B8A6E1200AC
:102030000F011B51F70B1B6F8950F70B896E1200B4
:102040000F012051FB0B206F8A50FB0B8A6E120090
:102050000F012051F70B206F8A50F70B8A6E120088
:102060008A5080098A6E0F0120518009206F12006A
:102070008A5040098A6E0F0120514009206F1200DA
:102080008A5020098A6E0F0120512009206F12000A
:102090008A5010098A6E0F0120511009206F12001A
:1020A0008A5002098A6E0F0120510209206F120026
:1020B00089500809896E0F011B5108091B6F120016
:1020C0008A5004098A6E0F0120510409206F120002
:1020D0008A5008098A6E0F0120510809206F1200EA
:1020E0000F0120517F0B206F8A507F0B8A6E1200E8
:1020F0000F012051BF0B206F8A50BF0B8A6E120058
:102100000F012051DF0B206F8A50DF0B8A6E120007
:102110000F012051EF0B206F8A50EF0B8A6E1200D7
:10212000D4507F0BD46E0E01BD51DF0BBD6F12007A
:102130000D500F140B6E0E5010140C6E12009E50AA
:1021400008099E6EAFEC10F012000E01C05120097C
:10215000C06F12000E01C0511009C06F1200060EB0
:102160009B6E810E9A6E12000E01C051EF0BC06F74
:1021700012008F5002098F6E12008F50FD0B8F6E70
:1021800012008E5008098E6E12008E50F70B8E6E64
:1021900012008F5004098F6E12008F50FB0B8F6E50
:1021A00012008F5008098F6E12008F50F70B8F6E40
:1021B00012008F5080098F6E12008F507F0B8F6E30
:1021C00012008F5040098F6E12008F50BF0B8F6E20
:1021D00012008F5020098F6E12008F50DF0B8F6E10
:1021E00012008F5010098F6E12008F50EF0B8F6E00
:1021F00012008C5020098C6E12008C5010098C6ECD
:1022000012008C50DF0B8C6E12008C50EF0B8C6E1A
:1022100012009D5020099D6E12009C5010099C6E6A
:022220001200AA
:020000040030CA
:0C0000008CFFFFFF9FFFFFFFFFFFFFFFD3
:00000001FF
